:10000000FDC000001CC100001AC1000018C10000A2
:1000100016C1000014C1000012C1000010C1000090
:100020000EC100000CC100000AC1000008C10000A0
:1000300006C1000004C1000002C1000000C10000B0
:10004000FEC00000FCC00000FAC00000F8C00000C4
:10005000F6C00000F4C00000F2C00000F0C00000D4
:10006000EEC00000ECC00000EAC00000E8C00000E4
:10007000E6C00000E4C00000E2C00000E0C00000F4
:10008000DEC00000DCC00000DAC00000D8C0000004
:10009000D6C00000D4C00000D2C00000D0C0000014
:1000A000CEC00000CCC00000CAC000000C9474098F
:1000B000C6C00000C4C00000C2C00000C0C0000034
:1000C000BEC00000BCC00000BAC00000B8C0000044
:1000D000B6C00000B4C00000B2C00000B0C0000054
:1000E000AEC00000ACC00000AAC00000A8C0000064
:1000F000A6C00000A4C00000A2C00000A0C0000074
:100100009EC000009CC000009AC0000098C0000083
:1001100096C0000094C0000092C0000090C0000093
:100120008EC000008CC000008AC0000088C00000A3
:1001300086C0000084C0000082C0000080C00000B3
:100140007EC000007CC000007AC0000078C00000C3
:1001500076C0000074C0000072C0000070C00000D3
:100160006EC000006CC000006AC0000068C00000E3
:1001700066C0000064C0000062C0000060C00000F3
:100180005EC000005CC000005AC0000058C0000003
:1001900056C0000054C0000052C0000050C0000013
:1001A0004EC000004CC000004AC0000048C0000023
:1001B00046C0000044C0000042C0000040C0000033
:1001C0003EC000003CC000003AC0000038C0000043
:1001D00036C0000034C0000032C0000030C0000053
:1001E0002EC000002CC000002AC0000028C0000063
:1001F00026C0000024C0000022C0000011241FBE41
:10020000CFEFCDBFDFE5DEBF00E00CBF10E2A0E026
:10021000B0E2E4EBF4E200E00BBF02C007900D9205
:10022000A036B107D9F720E3A0E6B0E201C01D92E5
:10023000A139B207E1F70E94E70A0C945812E0CE08
:10024000CF93DF931F92CDB7DEB780916B30909143
:100250006C30E0916020F0916120BE016F5F7F4FB4
:1002600019958981082E000C990B0F90DF91CF9181
:100270000895FC01918195FFFDCF608380E090E0BF
:100280000895FC0191819923ECF7808108954F92A4
:100290005F926F927F928F929F92AF92BF92EF92F6
:1002A000FF920F931F93CF937C014A015B012801BA
:1002B0003901FC01848182FF16C0D901C80168940C
:1002C00012F8B695A795979587951694D1F7B90129
:1002D000A801032E36E176956795579547953A958F
:1002E000D1F7302D15C0D901C801689413F8B6951F
:1002F000A795979587951694D1F7B901A801032E74
:1003000037E176956795579547953A95D1F7302D12
:1003100088159905AA05BB0508F4A6C0841695069C
:10032000A606B70608F4A2C0F701848182FD04C0C6
:10033000880C991CAA1CBB1CC301B201A501940125
:100340000E94A80C2F3F31054105510508F490C0CB
:100350008FEF90E0A0E0B0E0C9EF05C028173907A3
:100360004A075B0758F0880F991FAA1FBB1FCD3F94
:100370000CF48160CF5FC73089F74FC0CC230CF0FD
:100380004CC0D501C401880F991FAA1FBB1F880F3D
:10039000991FAA1FBB1F880F991FAA1FBB1F481AAE
:1003A000590A6A0A7B0ACE3FF4F48DEF9FEF8C1B4B
:1003B0009109C7FD939504C0440C551C661C771C1D
:1003C0008A95D2F7D501C401B695A79597958795DB
:1003D000BC01CD01640D751D861D971DA5019401FD
:1003E0000E94A80C37C083E08C0FA501940104C0C3
:1003F000220F331F441F551F8A95D2F7DA01C90116
:10040000B695A79597958795BC01CD01640D751D8F
:10041000861D971D0E94A80C1DC083E08C0FA501AE
:10042000940104C0220F331F441F551F8A95D2F731
:10043000DA01C901B695A79597958795BC01CD01BD
:10044000640D751D861D971D0E94A80C2150310951
:1004500041095109832F8F70C295C07FC82BF701C6
:10046000C783268381E018C080E016C080E014C0F6
:10047000D501C401880F991FAA1FBB1F880F991FA0
:10048000AA1FBB1F880F991FAA1FBB1F481A590A12
:100490006A0A7B0AC9EF89CFCF911F910F91FF9014
:1004A000EF90BF90AF909F908F907F906F905F90F4
:1004B0004F9008950F931F93CF93DF93EC018B011F
:1004C000009709F406C1803C910529F460E180E0C1
:1004D0000E94AA0AFEC0C11584E0D80729F464E08E
:1004E00080E00E94AA0AF5C0C038E1E0DE0729F4E6
:1004F00062E080E00E94AA0AECC0C115F1E0DF07CB
:1005000029F461E080E00E94AA0AE3C0C03883E0D9
:10051000D80729F461E081E00E94AA0ADAC0C03954
:10052000E3E0DE0729F461E082E00E94AA0AD1C07C
:10053000C115F2E0DF0729F462E081E00E94AA0A17
:10054000C8C0C03482E0D80729F462E082E00E948B
:10055000AA0ABFC0C032E3E0DE0721F464E082E013
:10056000F9D7B7C0C115F8E0DF0721F461E083E0F7
:10057000F1D7AFC0C11589E0D80721F461E084E06C
:10058000E9D7A7C0C115EAE0DE0721F461E085E004
:10059000E1D79FC0C115FBE0DF0721F461E086E0F1
:1005A000D9D797C0C03488E0D80721F462E083E04F
:1005B000D1D78FC0C034E9E0DE0721F462E084E0E7
:1005C000C9D787C0C034FAE0DF0721F462E085E0D4
:1005D000C1D77FC0C03988E0D80721F464E083E048
:1005E000B9D777C0C039E9E0DE0721F464E084E0E0
:1005F000B1D76FC0C039FAE0DF0721F464E085E0CD
:10060000A9D767C0C0398BE0D80721F464E086E041
:10061000A1D75FC0C03CE8E0DE0721F468E083E0DA
:1006200099D757C0C03CF9E0DF0721F468E084E0C7
:1006300091D74FC0C03C8AE0D80721F468E085E03C
:1006400089D747C0C03AE8E0DE0721F460E183E0E3
:1006500081D73FC0C03AF9E0DF0721F460E184E0D0
:1006600079D737C0C03A8AE0D80721F460E185E045
:1006700071D72FC0C03AEBE0DE0721F460E186E0DD
:1006800069D727C0C03BF8E0DF0721F460E283E0D0
:1006900061D71FC0C03B89E0D80721F460E284E045
:1006A00059D717C0C03BEAE0DE0721F460E285E0DD
:1006B00051D70FC0C038F4E0DF0721F460E483E0D5
:1006C00049D707C0C03A84E0D80719F460E485E050
:1006D00041D78D818F738D83F80195818481892B1A
:1006E0009681911198E0892B8D83F8014081518189
:1006F0006281738100E018E428EE31E0CE01C7DDAD
:100700009C8198609C839C8190619C83DF91CF91B8
:100710001F910F91089504C06150710981099109D9
:100720006115710581059105B9F708950F931F9320
:10073000CF93DF938C0139D4C82FD0E0DC2FCC27A6
:10074000C80133D49E01282BC901DF91CF911F919D
:100750000F910895CF92DF92EF92FF92CF93DF93A4
:10076000EC0123D4C82ED12CE12CF12C7601DD2410
:10077000CC24CE011AD4D82ACE0117D4A7019601D1
:10078000282BCA01B901DF91CF91FF90EF90DF9044
:10079000CF900895FC0120834183528363831586A3
:1007A0000895CF93DF93EC0188810DD46EE18981A8
:1007B0009A8103D46BE278E680E090E0ACDF888138
:1007C00016D466ED74E180E090E0A5DFDF91CF9173
:1007D0000895CF93DF93EC01E4DF8881F4D362EADC
:1007E00089819A81EAD389819A81A0DF8E879F8748
:1007F0008881FDD38881E7D364EA89819A81DDD33A
:1008000089819A8193DF888B998B8881F0D3888145
:10081000DAD366EA89819A81D0D389819A8186DF89
:100820008A8B9B8B8881E3D38881CDD368EA8981C9
:100830009A81C3D389819A8179DF8C8B9D8B888142
:10084000D6D38881C0D36AEA89819A81B6D3898157
:100850009A816CDF8E8B9F8B8881C9D38881B3D3BB
:100860006CEA89819A81A9D389819A815FDF888F17
:10087000998F8881BCD3DF91CF910895823029F17F
:1008800028F4882341F0813099F046C0833051F13B
:100890008430A9F141C088E4FB01808388E5FA0136
:1008A000808380E593E2F9018083918380E008955D
:1008B00086E4FB01808386E5FA0180838CEB91E17D
:1008C000F9018083918380E0089584E4FB018083B3
:1008D00084E5FA01808388EE98E0F90180839183B2
:1008E00080E0089582E4FB01808382E5FA01808341
:1008F00082E994E0F9018083918380E0089580E4A7
:10090000FB01808380E5FA01808388E592E0F901AC
:100910008083918380E0089581E008952F923F9233
:100920004F925F926F927F928F929F92AF92BF92FF
:10093000CF92DF92EF92FF920F931F93CF93DF93AB
:10094000CDB7DEB7E597CDBFDEBF4C0181E0D40166
:100950001C968C931C979E012F5F3F4FAE014C5FFE
:100960005F4FBE016D5F7F4F1D968C9187DF88239F
:1009700019F0F401148603C3D4018C9124D36B8144
:10098000F4018181928119D3D4018C9130D34981B2
:100990005A8141155105B1F1A12C0F2EF8E4BF2E5B
:1009A000F02D0F2EF8EECF2EF02DDD24D394E12C78
:1009B000F12C00E010E0242F352F40E050E060E003
:1009C00070E080E090E0E6D70F2EF6E0AF2EF02D3D
:1009D000B12CC12CD12C0E941D0D215C3D4B404FF0
:1009E0005F4F6F4F7F4F8F4F9F4F13D720E034E201
:1009F00044E759E46CD6D8D6622F732F842F952FF5
:100A00008ADE05C066E070E080E090E084DEF401FC
:100A10008081D9D260E0D40111968D919C9112977A
:100A2000CCD2F4018181928195DE6CA77DA78EA73F
:100A30009FA7D4018C91DBD2F4018081C4D26C8158
:100A4000D40111968D919C911297B7D2F4018081B7
:100A5000CED249815A8141155105A9F1A12C0F2E01
:100A6000F8E4BF2EF02D0F2EF8EECF2EF02DDD2462
:100A7000D394E12CF12C00E010E0242F352F40E03E
:100A800050E060E070E080E090E084D70F2EF6E068
:100A9000AF2EF02DB12CC12CD12CCFD7215C3D4BEA
:100AA000404F5F4F6F4F7F4F8F4F9F4FB2D620E029
:100AB00034E244E759E40BD677D6622F732F842FA4
:100AC000952F29DE05C066E070E080E090E023DE2F
:100AD000D4018C9178D260E0F401818192816DD251
:100AE000D40111968D919C91129734DE6B017C019B
:100AF000F40180817CD2D40156964D915C91579738
:100B0000242F352F40E050E060E070E080E090E07E
:100B100008E0EFD72D833E834F83588769877A8714
:100B20008B879C87970186018D819E81AF81B885D7
:100B3000081B190B2A0B3B0B0D831E832F83388751
:100B4000330F000B102F9801098B1A8B2B8B3C8BCA
:100B5000D40158964D915C915997AD80BE80CF805D
:100B6000D884E988FE2C0E2D1E2D242F352F40E031
:100B700050E060E070E080E090E00CD707E1D2D771
:100B8000822F932FA42FB52F8D879E87AF87B88B89
:100B90008C019D010053184F2F4F3F4F0D8B1E8B23
:100BA0002F8B388F003D1740210531050CF07CC09C
:100BB000FE2C0E2D1E2D2A2D3B2D4C2D5D2D602F34
:100BC000702F802F9E2DE6D6C22ED32EE42EF52E2A
:100BD000062F172FA82EB92EA0E0D4D784F42150C9
:100BE0003109410950486F4F7F4F8F4F9F4FC22EA1
:100BF000D32EE42EF52E062F172FA82EB92E2C2D2E
:100C00003D2D4E2D5F2D602F712F8A2D9B2D0FE1D5
:100C100089D7298F3A8F4B8F5C8F4D845E846F8488
:100C20007888770C4408542C32012D853E854F85F9
:100C30005889642D742D842D942D02E05AD7A22E4C
:100C4000B32EC42ED52EE62EF72EE82F192F04E052
:100C500050D70E2F8ED7AD84BE84CF84D888E42C95
:100C6000F42C042D142D7CD795D604E05BD72D8F62
:100C70003E8F4F8F58A369A37AA38BA3292E2A2DC9
:100C80003B2D4C2D5D2D642D742D842D942D01E074
:100C900030D7042D7FD62D873CA34DA35EA36FA331
:100CA00078A789A79AA714C01D861CA21DA21EA200
:100CB0001FA218A619A61AA61D8E1E8E1F8E18A278
:100CC00019A21AA21BA2212C198E1A8E1B8E1C8E01
:100CD0008D899E89AF89B88D8432EAEF9E07EFEF48
:100CE000AE07BE070CF058C02D893E894F89588D3C
:100CF0006C017D01FF0CCC08DC2C76016C2D7C2D69
:100D00008C2D9C2D24523A4F4F4F5F4F6F4F7F4F8A
:100D10008F4F9F4F322E432E542E652E762EB72F97
:100D2000A82FF92F04E0E5D6A32CB42CC52CD62C83
:100D3000E72CFB2E0A2F1F2F1CD7E2E02E27AD8CAD
:100D4000BE8CCF8CD8A0E9A0FAA00BA1122D08D799
:100D50002D8F3E8F4F8F58A369A37AA38BA3292E83
:100D6000232D342D452D562D672D7B2F8A2F9F2F18
:100D700003E0BFD62E27AD84BCA0CDA0DEA0EFA09F
:100D8000F8A409A51AA5ECD62D873CA34DA35EA314
:100D90006FA378A789A79AA7D40113968C9113976C
:100DA0008150823018F01C961C92E9C0F4014489ED
:100DB0005589AD80BE80CF80D884E988FE2C0E2D69
:100DC0001E2D242F352F40E050E060E070E080E0E1
:100DD00090E0E0D506E0A6D6422E532E642E752E66
:100DE000B62FA72F382E9BA7F401A088B1882A2DF3
:100DF0003B2D40E050E060E070E080E090E001E1F9
:100E000078D6A22EB32EC42ED52EE62EF72E082F7E
:100E1000192F242D352D462D572D6B2F7A2F832DED
:100E20009BA59ED6322E3BA748AB59AB6AAB7BAB9A
:100E30008CAB9DAB42895389AD80BE80CF80D88476
:100E4000E988FE2C0E2D1E2D242F352F40E050E07A
:100E500060E070E080E090E09DD507E063D6422E30
:100E6000532E642E752EB62FA72F8D83998BF401E8
:100E7000A684B7842A2D3B2D40E050E060E070E06E
:100E800080E090E000E135D6A22EB32EC42ED52E00
:100E9000E62EF72E082F192F242D352D462D572DF0
:100EA0006B2F7A2F8D8199895BD6AD84BCA0CDA0A4
:100EB000DEA0EFA0F8A409A51AA55BD6CCA4DDA4FA
:100EC000EEA4FFA456016701E12CF12C8701AD824D
:100ED000BE82CF82D886E986FA860B871C87E12CF2
:100EE000F12C00E010E056D505E11CD6422E532E21
:100EF000642E752EB62FA72FF82FE92F232D3BA593
:100F000048A959A96AA97BA98CA99DA9AD8CBE8CB9
:100F1000CF8CD8A0E9A0FAA00BA1122D2AD6A22E20
:100F2000B32EC42ED52EE62EF72E082F192F242DE2
:100F3000352D462D572D6B2F7A2F8F2F9E2F19D69B
:100F40000FE0F0D5D40114962C93149715963C938A
:100F5000159716964C93169717965C938D899E89D4
:100F6000AF89B88DA98CBA8CCB8CDC8C8A199B0983
:100F7000AC09BD09F40180879187A287B387E59604
:100F8000CDBFDEBFDF91CF911F910F91FF90EF900A
:100F9000DF90CF90BF90AF909F908F907F906F9099
:100FA0005F904F903F902F900895FC018EEF8383C8
:100FB00092819923ECF783810895FC0163839281E8
:100FC0009923ECF70895E82FE695E695E69540E23B
:100FD000E49FF0011124FA5F877021E030E0A9015D
:100FE00002C0440F551F8A95E2F746830895E82F03
:100FF000E695E695E69540E2E49FF0011124FA5F5C
:10100000877021E030E0A90102C0440F551F8A9586
:10101000E2F745830895E82FE695E695E69590E298
:10102000E99FF0011124FA5F982F977021E030E0DA
:1010300002C0220F331F9A95E2F72183D8CF08957B
:101040000F931F93CF93DF93EC018B01009709F46B
:10105000FEC0803C910521F460E180E07BD2F7C0C6
:10106000C11584E0D80721F464E080E073D2EFC0BA
:10107000C038E1E0DE0721F462E080E06BD2E7C037
:10108000C115F1E0DF0721F461E080E063D2DFC049
:10109000C03883E0D80721F461E081E05BD2D7C09B
:1010A000C039E3E0DE0721F461E082E053D2CFC033
:1010B000C115F2E0DF0721F462E081E04BD2C7C046
:1010C000C03482E0D80721F462E082E043D2BFC09E
:1010D000C032E3E0DE0721F464E082E03BD2B7C037
:1010E000C115F8E0DF0721F461E083E033D2AFC03F
:1010F000C11589E0D80721F461E084E02BD2A7C0B4
:10110000C115EAE0DE0721F461E085E023D29FC04B
:10111000C115FBE0DF0721F461E086E01BD297C038
:10112000C03488E0D80721F462E083E013D28FC096
:10113000C034E9E0DE0721F462E084E00BD287C02E
:10114000C034FAE0DF0721F462E085E003D27FC01B
:10115000C03988E0D80721F464E083E0FBD177C090
:10116000C039E9E0DE0721F464E084E0F3D16FC028
:10117000C039FAE0DF0721F464E085E0EBD167C015
:10118000C0398BE0D80721F464E086E0E3D15FC08A
:10119000C03CE8E0DE0721F468E083E0DBD157C023
:1011A000C03CF9E0DF0721F468E084E0D3D14FC010
:1011B000C03C8AE0D80721F468E085E0CBD147C085
:1011C000C03AE8E0DE0721F460E183E0C3D13FC02C
:1011D000C03AF9E0DF0721F460E184E0BBD137C019
:1011E000C03A8AE0D80721F460E185E0B3D12FC08E
:1011F000C03AEBE0DE0721F460E186E0ABD127C026
:10120000C03BF8E0DF0721F460E283E0A3D11FC018
:10121000C03B89E0D80721F460E284E09BD117C08D
:10122000C03BEAE0DE0721F460E285E093D10FC025
:10123000C038F4E0DF0721F460E483E08BD107C01D
:10124000C03A84E0D80719F460E485E083D1F8015E
:101250008181806B818381818F7B81838481806B9D
:10126000848380858F7B808780ED8883DF91CF9119
:101270001F910F91089504C061507109810991096E
:101280006115710581059105B9F708951F93CF93F5
:10129000DF93C0E8D6E010E11D8366ED74E180E0E5
:1012A00090E0E9DF1E83DF91CF911F9108951F9396
:1012B000CF93DF93C0E8D6E012E01E8368E670E3C8
:1012C00080EC9AE0E6D042E050E064E670E380EC27
:1012D0009AE0CCD068E670E380EC9AE0F0D01D8311
:1012E000DF91CF911F9108951F920F920FB60F9229
:1012F00011240BB60F922F933F934F935F936F93ED
:101300007F938F939F93AF93BF93CF93EF93FF936D
:10131000CFB7F894CCDF2091623030916330F9017F
:10132000EE0FFF1FEE59FF4DA4E6B0E38C9190E065
:10133000982F882711964C91842B80839183C90123
:10134000019680936230909363308115984030F01D
:1013500081E090E08093663090936730CFBFFF913B
:10136000EF91CF91BF91AF919F918F917F916F91AD
:101370005F914F913F912F910F900BBE0F900FBE39
:101380000F901F90189504C061507109810991094F
:101390006115710581059105B9F70895CF93DF9324
:1013A000EB010E9441018883DF91CF9108950C9455
:1013B00039010895CF93DF93CDB7DEB72797CDBF1F
:1013C000DEBF60E284E0C6D0E0E6F6E080818068BF
:1013D000808380EB99E080936B3090936C3087ED45
:1013E00099E08093693090936A308EEC99E0809315
:1013F000602090936120E6E0F0E284818D83858116
:101400008E8386818F8380819181A281B38189833C
:101410009A83AB83BC8360E284E09CD0BE016F5FA3
:101420007F4F80EB99E046D860E271E084E29AE079
:10143000C4D366E070E080E090E0A5DF2796CDBFE2
:10144000DEBFDF91CF910895682F80916B3090912E
:101450006C30E0916930F0916A30199599231CF055
:1014600081E090E008958FEF9FEF0895FC01DB018C
:101470004115510561F0460F571F2FEF23839281CD
:101480009923ECF783818D934A175B07B9F780E0C6
:101490000895FB018081E82FE695E695E69540E208
:1014A000E49FF0011124FA5F877021E030E0A90188
:1014B00002C0440F551F8A95E2F746830895FB0149
:1014C0008081E82FE695E695E69540E2E49FF001FD
:1014D0001124FA5F877021E030E0A90102C0440FB7
:1014E000551F8A95E2F745830895CF93DF931F92A6
:1014F0001F92CDB7DEB78FEF80937000809371009D
:1015000080937200809373008093740080937500C1
:10151000809376008FB78A83F8949A81E0E5F0E0B3
:101520008081826080839FBF818181FFFDCF61E0E8
:1015300080E490E045D08FB78983F8949981E0E505
:10154000F0E080818E7F80839FBF0F900F90DF91AE
:10155000CF910895CF93DF931F92CDB7DEB79FB79A
:101560009983F8949981E82FF0E0E059FF4F609556
:101570008081682360839FBF0F90DF91CF91089592
:101580009091800024E0829FB00111246C739270CE
:101590009160692B80E890E013D0E0E8F0E0828170
:1015A00080FDFDCF0895609180006C73636080E8DA
:1015B00090E006D0E0E8F0E0828180FDFDCF089564
:1015C0001BBEFC0128ED24BF608308950895CF93CE
:1015D000DF93CDB7DEB76A97CDBFDEBF86DFF6DF1C
:1015E00080E0CEDFE0DFE6DE8091780083FF06C09A
:1015F0008DE090E244D388E08093780024E140ECD1
:1016000058E061E0CE010196C5D88AE1FE0131962D
:10161000ADE6B0E301900D928A95E1F760E476E0E3
:1016200080EC98E00DDD80916D30F5DC8DE690E387
:10163000D0D887E08093A200789481E490E21FD311
:101640000F2EF7E5AF2EF0E2BF2EF02D0F2EF2E6B3
:10165000CF2EF0E3DF2EF02D0F2EFCE5EF2EF0E283
:10166000FF2EF02D8091663090916730892B69F1C3
:101670000DDE8DE690E352D9EDE6F0E387818F939E
:1016800086818F9385818F9384818F93BF92AF9250
:10169000DED202E610E20F900F900F900F900F90A5
:1016A0000F90F801808191810E5F1F4F9F938F9360
:1016B000FF92EF92CCD20F900F900F900F900C15DD
:1016C0001D0579F78AE090E0D5D2A895CBCF0CD054
:1016D00005C1FDD040F0F4D030F021F45F3F19F0A7
:1016E000D6C051112FC1D9C00AD198F39923C9F39B
:1016F0005523B1F3951B550BBB27AA276217730718
:10170000840738F09F5F5F4F220F331F441FAA1FCB
:10171000A9F333D00E2E3AF0E0E830D0915050408B
:10172000E695001CCAF729D0FE2F27D0660F771F39
:10173000881FBB1F261737074807AB07B0E809F01B
:10174000BB0B802DBF01FF2793585F4F2AF09E3FB0
:10175000510568F09CC0F6C05F3FECF3983EDCF3A7
:10176000869577956795B795F7959F5FC9F7880F29
:10177000911D9695879597F90895E1E0660F771F7B
:10178000881FBB1F621773078407BA0720F0621B0C
:10179000730B840BBA0BEE1F88F7E0950895BEE338
:1017A00004D008F490E80895BFE322273327A90165
:1017B000AED058F19F5740F1B91738F1BFE3B91BCC
:1017C0009927B8503AF4660F771F881F991FB39571
:1017D000D2F316C0B8504AF0232F342F452F562F7E
:1017E000672F782F8827B850BAF7B85F49F08695E9
:1017F000779567955795479537952795BA95B9F792
:101800000EF44ED088940895889460E070E0CB0187
:101810000895E894F92F96EBFF2381F01216130632
:101820001406440B9395F69587957795679557958C
:101830004040FF23B9F71BC099270895882351F42E
:101840009850D2F7872B762F652F542F432F322FA6
:1018500020E0B1F3121613061406440B88233AF065
:101860009A95440F551F661F771F881FCAF7552387
:101870004AF4440F551F11F460FF04C06F5F7F4F9F
:101880008F4F9F4F880F9695879597F9089597F9F1
:101890009F6780E870E060E008959FEF80EC089516
:1018A00090958095709560955095409530952195CF
:1018B0003F4F4F4F5F4F6F4F7F4F8F4F9F4F089559
:1018C00000240A941616170618060906089500241F
:1018D0000A9412161306140605060895092E039499
:1018E000000C11F4882352F0BB0F40F4BF2B11F40D
:1018F00060FF04C06F5F7F4F8F4F9F4F089557FD6C
:101900009058440F551F59F05F3F71F04795880F6D
:1019100097FB991F61F09F3F79F087950895121604
:1019200013061406551FF2CF4695F1DF08C01616B0
:1019300017061806991FF1CF869571056105089461
:101940000895E894BB2766277727CB0197F9089578
:10195000A1E21A2EAA1BBB1BFD010DC0AA1FBB1FB3
:10196000EE1FFF1FA217B307E407F50720F0A21B25
:10197000B30BE40BF50B661F771F881F991F1A9492
:1019800069F760957095809590959B01AC01BD01BC
:10199000CF010895DF93CF931F930F939A9DF02D5E
:1019A000219FF00D8B9DF00D8A9DE02DF10D039F81
:1019B000F00D029FE00DF11D4E9DE00DF11D5E9DAD
:1019C000F00D4F9DF00D7F936F93BF92AF925F9399
:1019D0004F93D501E3D08B01AC01D701DFD0EB01F0
:1019E000E80FF91FD6011FD02F913F91D601D6D015
:1019F000C60FD71FE81FF91FAF91BF9114D02F91C9
:101A00003F91CCD0C60FD71FE81FF91FD601C6D013
:101A1000E60FF71F9801BE01CF0111240F911F910E
:101A2000CF91DF910895BAD0460F571FC81FD91F15
:101A300008F431960895689401C0E8948F929F92BB
:101A4000CF93DF9305D0DF91CF919F908F90089532
:101A500088249924F401E401B0E49F93AA279A15FD
:101A60008B049C04ED05FE05CF05D007A10798F473
:101A7000AD2FDC2FCF2FFE2FE92D982C892E982FFC
:101A8000872F762F652F542F432F322F2227B850C0
:101A900031F7BF9127C01B2EBF91BB27220F331FE9
:101AA000441F551F661F771F881F991F881C991C8C
:101AB000EE1FFF1FCC1FDD1FAA1FBB1F8A149B0434
:101AC000EC05FD05CE05DF05A007B10748F08A1833
:101AD0009B08EC09FD09CE09DF09A00BB10B2160C1
:101AE0001A94E1F62EF49401AF01BE01CD01000C71
:101AF00008950F93083090F0982F872F762F652F39
:101B0000542F432F322F22270850F4CF220F331F98
:101B1000441F551F661F771F881F991F0A95B2F72C
:101B20000F91089597FB10F8169400080F93083052
:101B300098F00850232F342F452F562F672F782FDA
:101B4000892F902DF4CF0594979587957795679574
:101B500057954795379527950A95AAF70F910895B8
:101B60002A0D3B1D4C1D5D1D6E1D7F1D801F911F8D
:101B700008952A193B094C095D096E097F09800BFC
:101B8000910B08950024A7FD00942A173005400505
:101B9000500560057005800590050895A29FB0016D
:101BA000B39FC001A39F700D811D1124911DB29F91
:101BB000700D811D1124911D08950F931F93CF93D4
:101BC000DF93009731F46115710519F480E090E01E
:101BD00039C08B01EC016EE070E081E090E076D2DC
:101BE000FC01892B99F380E883830115110571F0BD
:101BF0000287138781E883838091873090918830B2
:101C0000892B21F4E0938730F09388302097C9F036
:101C1000C087D1878381826083838091893090914E
:101C20008A30892B71F4E0938930F0938A30809167
:101C30008B3090918C30892B21F4E0938B30F09392
:101C40008C30CF01DF91CF911F910F910895CF93E9
:101C5000DF93CDB7DEB7AE014A5F5F4FFA01619106
:101C60007191AF018091893090918A3038D0DF91A5
:101C7000CF9108956091893070918A307FC30F931E
:101C80001F93CF93DF93E0918930F0918A302381C5
:101C900021FF1BC08C01D0E0C0E0F80181918F01D1
:101CA0006091893070918A30DB011896ED91FC913A
:101CB0001997882331F01995892B79F3DFEFCFEF4E
:101CC000ECCF8AE01995892B19F08FEF9FEF02C0B6
:101CD0008D2F9C2FDF91CF911F910F9108952F92FF
:101CE0003F924F925F926F927F928F929F92AF92AC
:101CF000BF92CF92DF92EF92FF920F931F93CF93F9
:101D0000DF93CDB7DEB72B97CDBFDEBF6C017B0174
:101D10008A01FC0116821782838181FFBFC1CE0137
:101D200001963C01F6019381F70193FD859193FFA4
:101D300081917F01882309F4ADC1853239F493FD87
:101D4000859193FF81917F01853221F4B60190E066
:101D500015D3E8CF912C212C312CFFE1F315D8F0CD
:101D60008B3279F038F4803279F08332A1F4232D6C
:101D700020611DC08D3261F0803369F4232D216014
:101D800016C0832D8260382EE32DE4603E2E2AC0DB
:101D9000F32DF8601DC037FC2DC020ED280F2A3030
:101DA00040F08E32B9F436FC75C1232D2064322EFA
:101DB00019C036FE06C08AE0989E200D1124922E8E
:101DC00011C0EAE02E9E200D1124222EF32DF06288
:101DD0003F2E08C08C3621F4832D8068382E02C037
:101DE000883641F4F70193FD859193FF81917F013E
:101DF0008111B3CF982F9F7D9554933028F40C5FB9
:101E00001F4F9FE399830DC0833631F0833771F004
:101E1000833509F055C020C0F801808189830E5FA9
:101E20001F4F88248394912C530112C02801F2E0A3
:101E30004F0E511CF801A080B18036FE03C0692D01
:101E400070E002C06FEF7FEFC5018DD24C018201BF
:101E5000F32DFF773F2E15C0280122E0420E511CC2
:101E6000F801A080B18036FE03C0692D70E002C089
:101E70006FEF7FEFC50165D24C01F32DF0683F2E67
:101E8000820133FC19C0822D90E088169906A0F4D7
:101E9000B60180E290E072D22A94F5CFF50137FCCA
:101EA000859137FE81915F01B60190E067D22110E4
:101EB0002A9421E0821A91088114910479F7E1C0F3
:101EC000843611F0893639F5F80137FE07C0608194
:101ED0007181828193810C5F1F4F08C06081718185
:101EE000072E000C880B990B0E5F1F4FF32DFF760A
:101EF0003F2E97FF09C090958095709561957F4F13
:101F00008F4F9F4FF0683F2E2AE030E0A30172D23E
:101F1000882E861844C0853731F4232D2F7EB22EAB
:101F20002AE030E025C0932D997FB92E8F36C1F07D
:101F300018F4883579F0AEC0803719F0883721F071
:101F4000A9C0E92FE061BE2EB4FE0DC0FB2DF460E8
:101F5000BF2E09C034FE0AC0292F2660B22E06C04B
:101F600028E030E005C020E130E002C020E132E0AE
:101F7000F801B7FE07C060817181828193810C5F97
:101F80001F4F06C06081718180E090E00E5F1F4F9F
:101F9000A30130D2882E8618FB2DFF773F2E36FE08
:101FA0000DC0232D2E7FA22E891458F434FE0BC0B1
:101FB00032FC09C0832D8E7EA82E05C0B82CA32C20
:101FC00003C0B82C01C0B92CA4FE0FC0FE01E80D5F
:101FD000F11D8081803321F49A2D997EA92E09C0AC
:101FE000A2FE06C0B394B39404C08A2D867809F08B
:101FF000B394A3FC10C0A0FE06C0B21480F4280C59
:10200000922C9B180DC0B21458F4B60180E290E0F7
:10201000B5D1B394F8CFB21418F42B1802C0982C91
:10202000212CA4FE0FC0B60180E390E0A7D1A2FE50
:1020300016C0A1FC03C088E790E002C088E590E0EC
:10204000B6010CC08A2D867851F0A1FE02C08BE249
:1020500001C080E2A7FC8DE2B60190E08FD1891427
:1020600030F4B60180E390E089D19A94F8CF8A9455
:10207000F301E80DF11D8081B60190E07FD1811060
:10208000F6CF222009F44ECEB60180E290E076D160
:102090002A94F7CFF6018681978102C08FEF9FEFD8
:1020A0002B96CDBFDEBFDF91CF911F910F91FF9097
:1020B000EF90DF90CF90BF90AF909F908F907F90E8
:1020C0006F905F904F903F902F9008950F931F93C4
:1020D000CF93DF93869F8001879F100D969F100DF1
:1020E0001124C8010DD0EC01009721F0A80160E097
:1020F00070E032D1CE01DF91CF911F910F91089501
:102100000F931F93CF93DF938230910510F482E0F9
:1021100090E0E0918F30F091903020E030E0A0E04E
:10212000B0E0309719F14081518102811381481745
:102130005907C8F08417950769F4109731F0129683
:102140000C93129713961C9327C000938F30109313
:10215000903022C02115310519F04217530718F4A9
:102160009A01BD01EF01DF01F801DBCF2115310537
:10217000F9F0281B390B2430310580F48A819B81CA
:102180006115710521F0FB018283938304C0809364
:102190008F3090939030FE01329644C0FE01E20FE2
:1021A000F31F8193919322503109288339833AC0D8
:1021B00020918D3030918E30232B41F420910220DC
:1021C0003091032020938D3030938E302091002069
:1021D000309101202115310541F42DB73EB74091D2
:1021E000042050910520241B350BE0918D30F09197
:1021F0008E30E217F307A0F42E1B3F0B2817390788
:1022000078F0AC014E5F5F4F2417350748F04E0F52
:102210005F1F40938D3050938E308193919302C015
:10222000E0E0F0E0CF01DF91CF911F910F91089591
:10223000CF93DF93009709F481C0FC01329712829B
:102240001382A0918F30B0919030109781F420814B
:102250003181820F931F20918D3030918E3028175D
:10226000390751F5E0938D30F0938E3067C0ED0162
:1022700020E030E0CE17DF0740F44A815B819E0109
:1022800041155105F1F0EA01F5CFC283D3834081B6
:102290005181840F951FC817D90759F488819981F6
:1022A000840F951F0296808391838A819B8182830C
:1022B00093832115310529F4E0938F30F09390300A
:1022C0003DC0E901EA83FB8349915991C40FD51FB1
:1022D000EC17FD0761F480819181840F951F0296B0
:1022E000E90188839983828193818A839B83E0E0DB
:1022F000F0E012968D919C911397009719F0FD01D3
:10230000DC01F7CF8D919C9111979D012E5F3F4F7E
:10231000820F931F20918D3030918E30281739070E
:1023200069F4309729F410928F301092903002C0E7
:1023300012821382A0938D30B0938E30DF91CF91B3
:102340000895FC010590615070400110D8F7809508
:1023500090958E0F9F1F0895DC0101C06D93415031
:102360005040E0F70895FC01615070400190011069
:10237000D8F7809590958E0F9F1F08950F931F9308
:10238000CF93DF93FB01238121FD03C08FEF9FEFEC
:102390002CC022FF16C04681578124813581421707
:1023A000530744F4A081B1819D012F5F3F4F2083EB
:1023B00031838C93268137812F5F3F4F268337836C
:1023C00014C08B01EC01FB010084F185E02D19950F
:1023D000892BE1F6D80116968D919C91179701965D
:1023E00016968D939C931797CE01DF91CF911F91F5
:1023F0000F910895FA01AA27283051F1203181F177
:10240000E8946F936E7F6E5F7F4F8F4F9F4FAF4FFC
:10241000B1E03ED0B4E03CD0670F781F891F9A1F0F
:10242000A11D680F791F8A1F911DA11D6A0F711DC3
:10243000811D911DA11D20D009F468943F912AE0CF
:10244000269F11243019305D3193DEF6CF010895B7
:10245000462F4770405D4193B3E00FD0C9F7F6CFE8
:10246000462F4F70405D4A3318F0495D31FD4052B0
:10247000419302D0A9F7EACFB4E0A6959795879546
:1024800077956795BA95C9F7009761057105089525
:102490009B01AC010A2E06945795479537952795D1
:1024A000BA95C9F7620F731F841F951FA01D089569
:0424B000F894FFCFCE
:1024B40000009130200080250000030000574152A5
:1024C4004E494E473A207761746368646F6720749D
:1024D400696D657220636175736564207468652035
:1024E40063707520746F2062652072657365740D66
:1024F400004170706C69636174696F6E2062656716
:10250400696E2E2E2E0D00256C692C0025752C006D
:00000001FF
