:10000000FDC000001AC1000018C1000016C10000A8
:1000100014C1000012C1000010C100000EC1000098
:100020000CC100000AC1000008C1000006C10000A8
:1000300004C1000002C1000000C10000FEC00000B9
:10004000FCC00000FAC00000F8C00000F6C00000CC
:10005000F4C00000F2C00000F0C00000EEC00000DC
:10006000ECC00000EAC00000E8C00000E6C00000EC
:10007000E4C00000E2C00000E0C00000DEC00000FC
:10008000DCC00000DAC00000D8C00000D6C000000C
:10009000D4C00000D2C00000D0C00000CEC000001C
:1000A000CCC00000CAC00000C8C00000C6C000002C
:1000B000C4C00000C2C00000C0C00000BEC000003C
:1000C000BCC00000BAC00000B8C00000B6C000004C
:1000D000B4C00000B2C00000B0C00000AEC000005C
:1000E000ACC00000AAC00000A8C00000A6C000006C
:1000F000A4C00000A2C00000A0C000009EC000007C
:100100009CC000009AC0000098C0000096C000008B
:1001100094C0000092C0000090C000008EC000009B
:100120008CC000008AC0000088C0000086C00000AB
:1001300084C0000082C0000080C000007EC00000BB
:100140007CC000007AC0000078C0000076C00000CB
:1001500074C0000072C0000070C000006EC00000DB
:100160006CC000006AC0000068C0000066C00000EB
:1001700064C0000062C0000060C000005EC00000FB
:100180005CC000005AC0000058C0000056C000000B
:1001900054C0000052C0000050C000004EC000001B
:1001A0004CC000004AC0000048C0000046C000002B
:1001B00044C0000042C0000040C000003EC000003B
:1001C0003CC000003AC0000038C0000036C000004B
:1001D00034C0000032C0000030C000002EC000005B
:1001E0002CC000002AC0000028C0000026C000006B
:1001F00024C0000022C0000020C0000011241FBE47
:10020000CFEFCDBFDFE5DEBF00E00CBF10E2A0E026
:10021000B0E2EEE7FCE000E00BBF02C007900D92F9
:10022000A23BB107D9F720E2A2EBB0E201C01D92D8
:10023000A23CB207E1F71FD320C5E2CECF93DF93F4
:100240001F92CDB7DEB78091B6209091B720E09194
:10025000B220F091B320BE016F5F7F4F1995898165
:10026000082E000C990B0F90DF91CF910895FC019F
:10027000918195FFFDCF608380E090E00895FC01BF
:1002800091819923ECF7808108954F925F926F924C
:100290007F928F929F92AF92BF92EF92FF920F93B5
:1002A0001F93CF937C014A015B0128013901FC01B6
:1002B000848182FF16C0D901C801689412F8B695EE
:1002C000A795979587951694D1F7B901A801032EA4
:1002D00036E176956795579547953A95D1F7302D44
:1002E00015C0D901C801689413F8B695A7959795DC
:1002F00087951694D1F7B901A801032E37E17695B9
:100300006795579547953A95D1F7302D88159905FA
:10031000AA05BB0508F4A2C084169506A606B70672
:1003200008F49EC0F701848182FD04C0880C991CEA
:10033000AA1CBB1CC301B201A5019401C0D22F3F6E
:1003400031054105510508F48DC08FEF90E0A0E024
:10035000B0E0C9EF05C0281739074A075B0758F016
:10036000880F991FAA1FBB1FCD3F0CF48160CF5F80
:10037000C73089F74DC0CC230CF04AC0D501C40169
:10038000880F991FAA1FBB1F880F991FAA1FBB1F89
:10039000880F991FAA1FBB1F481A590A6A0A7B0AAD
:1003A000CE3FECF48DEF9FEF8C1B9109C7FD939529
:1003B00004C0440C551C661C771C8A95D2F7D501E5
:1003C000C401B695A79597958795BC01CD01640D9D
:1003D000751D861D971DA501940171D235C083E05E
:1003E0008C0FA501940104C0220F331F441F551F19
:1003F0008A95D2F7DA01C901B695A79597958795A1
:10040000BC01CD01640D751D861D971D58D21CC001
:1004100083E08C0FA501940104C0220F331F441FF9
:10042000551F8A95D2F7DA01C901B695A795979518
:100430008795BC01CD01640D751D861D971D3FD2AA
:100440002150310941095109832F8F70C295C07F16
:10045000C82BF701C783268381E018C080E016C04F
:1004600080E014C0D501C401880F991FAA1FBB1FCB
:10047000880F991FAA1FBB1F880F991FAA1FBB1F98
:10048000481A590A6A0A7B0AC9EF8CCFCF911F918B
:100490000F91FF90EF90BF90AF909F908F907F90C3
:1004A0006F905F904F9008950F931F93CF93DF93BA
:1004B000EC018B01009709F4FEC0803C910521F40A
:1004C00060E180E09BD1F7C0C11584E0D80721F43A
:1004D00064E080E093D1EFC0C038E1E0DE0721F4B2
:1004E00062E080E08BD1E7C0C115F1E0DF0721F4C5
:1004F00061E080E083D1DFC0C03883E0D80721F419
:1005000061E081E07BD1D7C0C039E3E0DE0721F4B0
:1005100061E082E073D1CFC0C115F2E0DF0721F4C2
:1005200062E081E06BD1C7C0C03482E0D80721F41B
:1005300062E082E063D1BFC0C032E3E0DE0721F4B5
:1005400064E082E05BD1B7C0C115F8E0DF0721F4B9
:1005500061E083E053D1AFC0C11589E0D80721F431
:1005600061E084E04BD1A7C0C115EAE0DE0721F4C9
:1005700061E085E043D19FC0C115FBE0DF0721F4B6
:1005800061E086E03BD197C0C03488E0D80721F411
:1005900062E083E033D18FC0C034E9E0DE0721F4AC
:1005A00062E084E02BD187C0C034FAE0DF0721F499
:1005B00062E085E023D17FC0C03988E0D80721F40C
:1005C00064E083E01BD177C0C039E9E0DE0721F4A5
:1005D00064E084E013D16FC0C039FAE0DF0721F492
:1005E00064E085E00BD167C0C0398BE0D80721F407
:1005F00064E086E003D15FC0C03CE8E0DE0721F4A0
:1006000068E083E0FBD057C0C03CF9E0DF0721F48D
:1006100068E084E0F3D04FC0C03C8AE0D80721F402
:1006200068E085E0EBD047C0C03AE8E0DE0721F49F
:1006300060E183E0E3D03FC0C03AF9E0DF0721F496
:1006400060E184E0DBD037C0C03A8AE0D80721F40B
:1006500060E185E0D3D02FC0C03AEBE0DE0721F4A3
:1006600060E186E0CBD027C0C03BF8E0DF0721F493
:1006700060E283E0C3D01FC0C03B89E0D80721F40B
:1006800060E284E0BBD017C0C03BEAE0DE0721F4A3
:1006900060E285E0B3D00FC0C038F4E0DF0721F49A
:1006A00060E483E0ABD007C0C03A84E0D80719F417
:1006B00060E485E0A3D08D818F738D83F8019581EF
:1006C0008481892B9681911198E0892B8D83F80183
:1006D000408151816281738100E814E82EE130E0AD
:1006E000CE01D3DD9C8198609C839C8190619C832A
:1006F000DF91CF911F910F91089504C0615071094E
:10070000810991096115710581059105B9F7089570
:10071000CF93DF93EB01B3DD8883DF91CF91089511
:10072000A6CD0895CF93DF93CDB7DEB72797CDBF82
:10073000DEBFE0E4F6E080818860808380EA9BE0B1
:100740008093B6209093B72080E993E08093B42003
:100750009093B52088E893E08093B2209093B320E3
:10076000E6E0F0E284818D8385818E8386818F83AC
:1007700080819181A281B38189839A83AB83BC8379
:1007800060E186E03BD0BE016F5F7F4F80EA9BE077
:100790008BDE6EE171E08CED93E0B3D060E186E03A
:1007A0002DD061E070E080E090E0A7DF2796CDBF1C
:1007B000DEBFDF91CF910895682F8091B620909190
:1007C000B720E091B420F091B520199599231CF041
:1007D00081E090E008958FEF9FEF08958FEF809371
:1007E00070008093710080937200809373008093F7
:1007F000740080937500809376000895CF93DF9303
:100800001F92CDB7DEB79FB79983F8949981E82FEF
:10081000F0E0E059FF4F60958081682360839FBFBF
:100820000F90DF91CF9108959091800024E0829FF6
:10083000B00111246C7392709160692B80E890E094
:1008400013D0E0E8F0E0828180FDFDCF0895609153
:1008500080006C73636080E890E006D0E0E8F0E030
:10086000828180FDFDCF08951BBEFC0128ED24BFD1
:10087000608308950895B2DFFDDF80E0D5DFE7DF14
:1008800051DF8091780083FF06C08DE090E283D035
:1008900088E08093780081E490E27DD08FE590E25B
:1008A0007AD087E08093A200789486E790E273D0B4
:1008B00084E990E270D08AEA90E26DD0FCCFA1E2A8
:1008C0001A2EAA1BBB1BFD010DC0AA1FBB1FEE1FCA
:1008D000FF1FA217B307E407F50720F0A21BB30B15
:1008E000E40BF50B661F771F881F991F1A9469F791
:1008F00060957095809590959B01AC01BD01CF01ED
:1009000008950F931F93CF93DF93009731F46115F0
:10091000710519F480E090E039C08B01EC016EE0C4
:1009200070E081E090E067D0FC01892B99F380E8CA
:1009300083830115110571F00287138781E8838392
:100940008091B8209091B920892B21F4E093B820B0
:10095000F093B9202097C9F0C087D1878381826046
:1009600083838091BA209091BB20892B71F4E0930E
:10097000BA20F093BB208091BC209091BD20892BA0
:1009800021F4E093BC20F093BD20CF01DF91CF9103
:100990001F910F9108950F931F93CF93DF93E091D1
:1009A000BA20F091BB20238121FF1BC08C01D0E035
:1009B000C0E0F80181918F016091BA207091BB2055
:1009C000DB011896ED91FC911997882331F0199568
:1009D000892B79F3DFEFCFEFECCF8AE01995892BE4
:1009E00019F08FEF9FEF02C08D2F9C2FDF91CF91D9
:1009F0001F910F9108950F931F93CF93DF93869FBD
:100A00008001879F100D969F100D1124C8010DD0F5
:100A1000EC01009721F0A80160E070E027D1CE0141
:100A2000DF91CF911F910F9108950F931F93CF9353
:100A3000DF938230910510F482E090E0E091C020D5
:100A4000F091C12020E030E0A0E0B0E0309719F153
:100A5000408151810281138148175907C8F08417DA
:100A6000950769F4109731F012960C93129713962C
:100A70001C9327C00093C0201093C12022C02115D1
:100A8000310519F04217530718F49A01BD01EF011F
:100A9000DF01F801DBCF21153105F9F0281B390BF7
:100AA0002430310580F48A819B816115710521F024
:100AB000FB018283938304C08093C0209093C12064
:100AC000FE01329644C0FE01E20FF31F8193919321
:100AD00022503109288339833AC02091BE203091B9
:100AE000BF20232B41F4209102203091032020933A
:100AF000BE203093BF20209100203091012021158D
:100B0000310541F42DB73EB74091042050910520A6
:100B1000241B350BE091BE20F091BF20E217F307B4
:100B2000A0F42E1B3F0B2817390778F0AC014E5F5D
:100B30005F4F2417350748F04E0F5F1F4093BE20CC
:100B40005093BF208193919302C0E0E0F0E0CF0189
:100B5000DF91CF911F910F910895CF93DF9300976D
:100B600009F481C0FC01329712821382A091C02047
:100B7000B091C120109781F420813181820F931FA1
:100B80002091BE203091BF202817390751F5E093FE
:100B9000BE20F093BF2067C0ED0120E030E0CE170B
:100BA000DF0740F44A815B819E0141155105F1F058
:100BB000EA01F5CFC283D38340815181840F951F11
:100BC000C817D90759F488819981840F951F029617
:100BD000808391838A819B81828393832115310550
:100BE00029F4E093C020F093C1203DC0E901EA83DD
:100BF000FB8349915991C40FD51FEC17FD0761F490
:100C000080819181840F951F0296E90188839983E1
:100C1000828193818A839B83E0E0F0E012968D913C
:100C20009C911397009719F0FD01DC01F7CF8D918E
:100C30009C9111979D012E5F3F4F820F931F209132
:100C4000BE203091BF202817390769F4309729F466
:100C50001092C0201092C12002C012821382A09371
:100C6000BE20B093BF20DF91CF910895DC0101C079
:0E0C70006D9341505040E0F70895F894FFCF87
:100C7E000000C220200000C20100030000574152B4
:100C8E004E494E473A207761746368646F672074EB
:100C9E00696D657220636175736564207468652083
:100CAE0063707520746F2062652072657365740DB4
:100CBE0000436F6E736F6C6520555341525420691B
:100CCE006E697469616C697A65642E2E2E0D0053FF
:100CDE00797374656D20696E697469616C697A6582
:100CEE00642E2E2E0D00476C6F62616C20696E743F
:100CFE006572727570747320656E61626C65642EB8
:100D0E002E2E0D004170706C69636174696F6E20D8
:100D1E00626567696E2E2E2E0D0048656C6C6F0D28
:020D2E000000C3
:00000001FF
