S01D00005261696E626F77486F72697A6F6E7342616C6C65722E7372656387
S1130000FDC000001AC1000018C1000016C10000A4
S113001014C1000012C1000010C100000EC1000094
S11300200CC100000AC1000008C1000006C10000A4
S113003004C1000002C1000000C10000FEC00000B5
S1130040FCC00000FAC00000F8C00000F6C00000C8
S1130050F4C00000F2C00000F0C00000EEC00000D8
S1130060ECC00000EAC00000E8C00000E6C00000E8
S1130070E4C00000E2C00000E0C00000DEC00000F8
S1130080DCC00000DAC00000D8C00000D6C0000008
S1130090D4C00000D2C00000D0C00000CEC0000018
S11300A0CCC00000CAC00000C8C0000043C30000A8
S11300B0C4C00000C2C00000C0C00000BEC0000038
S11300C0BCC00000BAC00000B8C00000B6C0000048
S11300D0B4C00000B2C00000B0C00000AEC0000058
S11300E0ACC00000AAC00000A8C00000A6C0000068
S11300F0A4C00000A2C00000A0C000009EC0000078
S11301009CC000009AC0000098C0000096C0000087
S113011094C0000092C0000090C000008EC0000097
S11301208CC000008AC0000088C0000086C00000A7
S113013084C0000082C0000080C000007EC00000B7
S11301407CC000007AC0000078C0000076C00000C7
S113015074C0000072C0000070C000006EC00000D7
S11301606CC000006AC0000068C0000066C00000E7
S113017064C0000062C0000060C000005EC00000F7
S11301805CC000005AC0000058C0000056C0000007
S113019054C0000052C0000050C000004EC0000017
S11301A04CC000004AC0000048C0000046C0000027
S11301B044C0000042C0000040C000003EC0000037
S11301C03CC000003AC0000038C0000036C0000047
S11301D034C0000032C0000030C000002EC0000057
S11301E02CC000002AC0000028C0000026C0000067
S11301F024C0000022C0000020C0000011241FBE43
S1130200CFEFCDBFDFE5DEBF00E00CBF10E2A0E022
S1130210B0E2E2EBFDE000E00BBF02C007900D92FC
S1130220A23BB107D9F720E3A2EBB0E201C01D92D3
S1130230A93CB207E1F7B9D3BAC5E2CECF93DF93B5
S11302401F92CDB7DEB78091BD309091BE30E09162
S1130250B620F091B720BE016F5F7F4F1995898159
S1130260082E000C990B0F90DF91CF910895FC019B
S1130270918195FFFDCF608380E090E00895FC01BB
S113028091819923ECF7808108954F925F926F9248
S11302907F928F929F92AF92BF92EF92FF920F93B1
S11302A01F93CF937C014A015B0128013901FC01B2
S11302B0848182FF16C0D901C801689412F8B695EA
S11302C0A795979587951694D1F7B901A801032EA0
S11302D036E176956795579547953A95D1F7302D40
S11302E015C0D901C801689413F8B695A7959795D8
S11302F087951694D1F7B901A801032E37E17695B5
S11303006795579547953A95D1F7302D88159905F6
S1130310AA05BB0508F4A2C084169506A606B7066E
S113032008F49EC0F701848182FD04C0880C991CE6
S1130330AA1CBB1CC301B201A50194015AD32F3FCF
S113034031054105510508F48DC08FEF90E0A0E020
S1130350B0E0C9EF05C0281739074A075B0758F012
S1130360880F991FAA1FBB1FCD3F0CF48160CF5F7C
S1130370C73089F74DC0CC230CF04AC0D501C40165
S1130380880F991FAA1FBB1F880F991FAA1FBB1F85
S1130390880F991FAA1FBB1F481A590A6A0A7B0AA9
S11303A0CE3FECF48DEF9FEF8C1B9109C7FD939525
S11303B004C0440C551C661C771C8A95D2F7D501E1
S11303C0C401B695A79597958795BC01CD01640D99
S11303D0751D861D971DA50194010BD335C083E0BF
S11303E08C0FA501940104C0220F331F441F551F15
S11303F08A95D2F7DA01C901B695A795979587959D
S1130400BC01CD01640D751D861D971DF2D21CC063
S113041083E08C0FA501940104C0220F331F441FF5
S1130420551F8A95D2F7DA01C901B695A795979514
S11304308795BC01CD01640D751D861D971DD9D20C
S11304402150310941095109832F8F70C295C07F12
S1130450C82BF701C783268381E018C080E016C04B
S113046080E014C0D501C401880F991FAA1FBB1FC7
S1130470880F991FAA1FBB1F880F991FAA1FBB1F94
S1130480481A590A6A0A7B0AC9EF8CCFCF911F9187
S11304900F91FF90EF90BF90AF909F908F907F90BF
S11304A06F905F904F9008950F931F93CF93DF93B6
S11304B0EC018B01009709F4FEC0803C910521F406
S11304C060E180E035D2F7C0C11584E0D80721F49B
S11304D064E080E02DD2EFC0C038E1E0DE0721F413
S11304E062E080E025D2E7C0C115F1E0DF0721F426
S11304F061E080E01DD2DFC0C03883E0D80721F47A
S113050061E081E015D2D7C0C039E3E0DE0721F411
S113051061E082E00DD2CFC0C115F2E0DF0721F423
S113052062E081E005D2C7C0C03482E0D80721F47C
S113053062E082E0FDD1BFC0C032E3E0DE0721F417
S113054064E082E0F5D1B7C0C115F8E0DF0721F41B
S113055061E083E0EDD1AFC0C11589E0D80721F493
S113056061E084E0E5D1A7C0C115EAE0DE0721F42B
S113057061E085E0DDD19FC0C115FBE0DF0721F418
S113058061E086E0D5D197C0C03488E0D80721F473
S113059062E083E0CDD18FC0C034E9E0DE0721F40E
S11305A062E084E0C5D187C0C034FAE0DF0721F4FB
S11305B062E085E0BDD17FC0C03988E0D80721F46E
S11305C064E083E0B5D177C0C039E9E0DE0721F407
S11305D064E084E0ADD16FC0C039FAE0DF0721F4F4
S11305E064E085E0A5D167C0C0398BE0D80721F469
S11305F064E086E09DD15FC0C03CE8E0DE0721F402
S113060068E083E095D157C0C03CF9E0DF0721F4EE
S113061068E084E08DD14FC0C03C8AE0D80721F463
S113062068E085E085D147C0C03AE8E0DE0721F400
S113063060E183E07DD13FC0C03AF9E0DF0721F4F7
S113064060E184E075D137C0C03A8AE0D80721F46C
S113065060E185E06DD12FC0C03AEBE0DE0721F404
S113066060E186E065D127C0C03BF8E0DF0721F4F4
S113067060E283E05DD11FC0C03B89E0D80721F46C
S113068060E284E055D117C0C03BEAE0DE0721F404
S113069060E285E04DD10FC0C038F4E0DF0721F4FB
S11306A060E483E045D107C0C03A84E0D80719F478
S11306B060E485E03DD18D818F738D83F801958150
S11306C08481892B9681911198E0892B8D83F8017F
S11306D0408151816281738100E814E82EE130E0A9
S11306E0CE01D3DD9C8198609C839C8190619C8326
S11306F0DF91CF911F910F9108951F93CF93DF93B3
S1130700C0E8D6E012E01E836AEB70E380EC9AE066
S1130710D3D042E050E068EB70E380EC9AE0B9D0CB
S11307206AEB70E380EC9AE0DDD01D83DF91CF911A
S11307301F9108951F920F920FB60F9211240BB6BA
S11307400F922F933F934F935F936F937F938F9366
S11307509F93AF93BF93CF93EF93FF93CFB7F89447
S1130760CCDF8091B4209091B52001968093B42081
S11307709093B5208115984030F081E090E080930B
S1130780B2209093B320CFBFFF91EF91CF91BF914F
S1130790AF919F918F917F916F915F914F913F9115
S11307A02F910F900BBE0F900FBE0F901F901895B6
S11307B004C06150710981099109611571058105B0
S11307C09105B9F70895CF93DF93EB0158DD888342
S11307D0DF91CF9108954BCD0895CF93DF93CDB79B
S11307E0DEB72797CDBFDEBFE0E4F6E08081886006
S11307F0808380EA9BE08093BD309093BE308BEE83
S113080093E08093BB309093BC3083EE93E080936D
S1130810B6209093B720E6E0F0E284818D83858151
S11308208E8386818F8380819181A281B381898324
S11308309A83AB83BC8360E186E07AD0BE016F5FAC
S11308407F4F80EA9BE030DE6EE171E087E394E065
S1130850F2D060E186E06CD061E070E080E090E08E
S1130860A7DF2796CDBFDEBFDF91CF910895682F14
S11308708091BD309091BE30E091BB30F091BC309E
S1130880199599231CF081E090E008958FEF9FEF74
S11308900895FC01DB014115510561F0460F571F16
S11308A02FEF238392819923ECF783818D934A1749
S11308B05B07B9F780E00895FB018081E82FE69596
S11308C0E695E69540E2E49FF0011124FA5F877013
S11308D021E030E0A90102C0440F551F8A95E2F7D8
S11308E046830895FB018081E82FE695E695E69519
S11308F040E2E49FF0011124FA5F877021E030E0C8
S1130900A90102C0440F551F8A95E2F74583089553
S11309108FEF8093700080937100809372008093B6
S1130920730080937400809375008093760008951B
S1130930CF93DF931F92CDB7DEB79FB79983F89417
S11309409981E82FF0E0E059FF4F6095808168239A
S113095060839FBF0F90DF91CF91089590918000A5
S113096024E0829FB00111246C7392709160692B12
S113097080E890E013D0E0E8F0E0828180FDFDCFD4
S11309800895609180006C73636080E890E006D005
S1130990E0E8F0E0828180FDFDCF08951BBEFC01FC
S11309A028ED24BF608308950895B2DFFDDF80E061
S11309B0D5DFE7DF12DF8091780083FF06C08DE08A
S11309C090E283D088E08093780081E490E27DD047
S11309D08FE590E27AD087E08093A200789486E74E
S11309E090E273D084E990E270D08AEA90E26DD00C
S11309F0FCCFA1E21A2EAA1BBB1BFD010DC0AA1F2E
S1130A00BB1FEE1FFF1FA217B307E407F50720F073
S1130A10A21BB30BE40BF50B661F771F881F991FEE
S1130A201A9469F760957095809590959B01AC0137
S1130A30BD01CF0108950F931F93CF93DF930097C8
S1130A4031F46115710519F480E090E039C08B012F
S1130A50EC016EE070E081E090E067D0FC01892B4E
S1130A6099F380E883830115110571F002871387D8
S1130A7081E883838091BF309091C030892B21F429
S1130A80E093BF30F093C0302097C9F0C087D1877E
S1130A908381826083838091C1309091C230892B9D
S1130AA071F4E093C130F093C2308091C3309091DF
S1130AB0C430892B21F4E093C330F093C430CF01C8
S1130AC0DF91CF911F910F9108950F931F93CF93AF
S1130AD0DF93E091C130F091C230238121FF1BC02C
S1130AE08C01D0E0C0E0F80181918F016091C130A8
S1130AF07091C230DB011896ED91FC91199788230F
S1130B0031F01995892B79F3DFEFCFEFECCF8AE041
S1130B101995892B19F08FEF9FEF02C08D2F9C2F11
S1130B20DF91CF911F910F9108950F931F93CF934E
S1130B30DF93869F8001879F100D969F100D1124CF
S1130B40C8010DD0EC01009721F0A80160E070E02D
S1130B5027D1CE01DF91CF911F910F9108950F936B
S1130B601F93CF93DF938230910510F482E090E0DD
S1130B70E091C730F091C83020E030E0A0E0B0E070
S1130B80309719F140815181028113814817590727
S1130B90C8F08417950769F4109731F012960C93F6
S1130BA0129713961C9327C00093C7301093C83034
S1130BB022C02115310519F04217530718F49A0180
S1130BC0BD01EF01DF01F801DBCF21153105F9F09B
S1130BD0281B390B2430310580F48A819B816115EF
S1130BE0710521F0FB018283938304C08093C73095
S1130BF09093C830FE01329644C0FE01E20FF31F09
S1130C008193919322503109288339833AC02091EA
S1130C10C5303091C630232B41F42091022030910D
S1130C2003202093C5303093C630209100203091AA
S1130C3001202115310541F42DB73EB74091042020
S1130C4050910520241B350BE091C530F091C6303E
S1130C50E217F307A0F42E1B3F0B2817390778F08F
S1130C60AC014E5F5F4F2417350748F04E0F5F1FEE
S1130C704093C5305093C6308193919302C0E0E015
S1130C80F0E0CF01DF91CF911F910F910895CF93A1
S1130C90DF93009709F481C0FC013297128213821A
S1130CA0A091C730B091C830109781F42081318170
S1130CB0820F931F2091C5303091C6302817390711
S1130CC051F5E093C530F093C63067C0ED0120E0E4
S1130CD030E0CE17DF0740F44A815B819E01411565
S1130CE05105F1F0EA01F5CFC283D38340815181EC
S1130CF0840F951FC817D90759F488819981840FE7
S1130D00951F0296808391838A819B81828393833A
S1130D102115310529F4E093C730F093C8303DC064
S1130D20E901EA83FB8349915991C40FD51FEC175C
S1130D30FD0761F480819181840F951F0296E9017A
S1130D4088839983828193818A839B83E0E0F0E0A6
S1130D5012968D919C911397009719F0FD01DC0177
S1130D60F7CF8D919C9111979D012E5F3F4F820F7C
S1130D70931F2091C5303091C6302817390769F484
S1130D80309729F41092C7301092C83002C01282F2
S1130D901382A093C530B093C630DF91CF910895EC
S1130DA0DC0101C06D9341505040E0F70895F89480
S1050DB0FFCF6F
S1130DB20000C930200000C2010003000057415264
S1130DC24E494E473A207761746368646F672074B2
S1130DD2696D65722063617573656420746865204A
S1130DE263707520746F2062652072657365740D7B
S1130DF200436F6E736F6C652055534152542069E2
S1130E026E697469616C697A65642E2E2E0D0053C5
S1130E12797374656D20696E697469616C697A6548
S1130E22642E2E2E0D00476C6F62616C20696E7405
S1130E326572727570747320656E61626C65642E7E
S1130E422E2E0D004170706C69636174696F6E209F
S1130E52626567696E2E2E2E0D0048656C6C6F0DEF
S1050E6200008A
S9030000FC
